{
  "_format": "hh-sol-artifact-1",
  "contractName": "BohringElements",
  "sourceName": "contracts/BohringElements.sol",
  "abi": [
    {
      "inputs": [],
      "stateMutability": "nonpayable",
      "type": "constructor"
    },
    {
      "anonymous": false,
      "inputs": [
        {
          "indexed": true,
          "internalType": "address",
          "name": "owner",
          "type": "address"
        },
        {
          "indexed": true,
          "internalType": "address",
          "name": "approved",
          "type": "address"
        },
        {
          "indexed": true,
          "internalType": "uint256",
          "name": "tokenId",
          "type": "uint256"
        }
      ],
      "name": "Approval",
      "type": "event"
    },
    {
      "anonymous": false,
      "inputs": [
        {
          "indexed": true,
          "internalType": "address",
          "name": "owner",
          "type": "address"
        },
        {
          "indexed": true,
          "internalType": "address",
          "name": "operator",
          "type": "address"
        },
        {
          "indexed": false,
          "internalType": "bool",
          "name": "approved",
          "type": "bool"
        }
      ],
      "name": "ApprovalForAll",
      "type": "event"
    },
    {
      "anonymous": false,
      "inputs": [
        {
          "indexed": false,
          "internalType": "address",
          "name": "sender",
          "type": "address"
        },
        {
          "indexed": false,
          "internalType": "uint256",
          "name": "tokenId",
          "type": "uint256"
        }
      ],
      "name": "NewElementMinted",
      "type": "event"
    },
    {
      "anonymous": false,
      "inputs": [
        {
          "indexed": true,
          "internalType": "address",
          "name": "previousOwner",
          "type": "address"
        },
        {
          "indexed": true,
          "internalType": "address",
          "name": "newOwner",
          "type": "address"
        }
      ],
      "name": "OwnershipTransferred",
      "type": "event"
    },
    {
      "anonymous": false,
      "inputs": [
        {
          "indexed": true,
          "internalType": "address",
          "name": "from",
          "type": "address"
        },
        {
          "indexed": true,
          "internalType": "address",
          "name": "to",
          "type": "address"
        },
        {
          "indexed": true,
          "internalType": "uint256",
          "name": "tokenId",
          "type": "uint256"
        }
      ],
      "name": "Transfer",
      "type": "event"
    },
    {
      "inputs": [
        {
          "internalType": "string",
          "name": "symbol",
          "type": "string"
        },
        {
          "internalType": "uint256",
          "name": "x",
          "type": "uint256"
        },
        {
          "internalType": "uint256",
          "name": "y",
          "type": "uint256"
        }
      ],
      "name": "BohrModel",
      "outputs": [
        {
          "internalType": "string",
          "name": "",
          "type": "string"
        }
      ],
      "stateMutability": "payable",
      "type": "function"
    },
    {
      "inputs": [
        {
          "internalType": "address",
          "name": "to",
          "type": "address"
        },
        {
          "internalType": "uint256",
          "name": "tokenId",
          "type": "uint256"
        }
      ],
      "name": "approve",
      "outputs": [],
      "stateMutability": "nonpayable",
      "type": "function"
    },
    {
      "inputs": [
        {
          "internalType": "address",
          "name": "owner",
          "type": "address"
        }
      ],
      "name": "balanceOf",
      "outputs": [
        {
          "internalType": "uint256",
          "name": "",
          "type": "uint256"
        }
      ],
      "stateMutability": "view",
      "type": "function"
    },
    {
      "inputs": [
        {
          "internalType": "uint256",
          "name": "_tokenId",
          "type": "uint256"
        }
      ],
      "name": "buildMetadata",
      "outputs": [
        {
          "internalType": "string",
          "name": "",
          "type": "string"
        }
      ],
      "stateMutability": "nonpayable",
      "type": "function"
    },
    {
      "inputs": [
        {
          "internalType": "uint256",
          "name": "electrons",
          "type": "uint256"
        },
        {
          "internalType": "uint256",
          "name": "radius",
          "type": "uint256"
        },
        {
          "internalType": "uint256",
          "name": "x",
          "type": "uint256"
        },
        {
          "internalType": "uint256",
          "name": "y",
          "type": "uint256"
        }
      ],
      "name": "electronShell",
      "outputs": [
        {
          "internalType": "string",
          "name": "",
          "type": "string"
        }
      ],
      "stateMutability": "pure",
      "type": "function"
    },
    {
      "inputs": [
        {
          "internalType": "string",
          "name": "",
          "type": "string"
        },
        {
          "internalType": "uint256",
          "name": "",
          "type": "uint256"
        }
      ],
      "name": "elementsDetails",
      "outputs": [
        {
          "internalType": "uint256",
          "name": "",
          "type": "uint256"
        }
      ],
      "stateMutability": "view",
      "type": "function"
    },
    {
      "inputs": [
        {
          "internalType": "uint256",
          "name": "",
          "type": "uint256"
        }
      ],
      "name": "elementsValues",
      "outputs": [
        {
          "internalType": "string",
          "name": "",
          "type": "string"
        }
      ],
      "stateMutability": "view",
      "type": "function"
    },
    {
      "inputs": [
        {
          "internalType": "uint256",
          "name": "tokenId",
          "type": "uint256"
        }
      ],
      "name": "getApproved",
      "outputs": [
        {
          "internalType": "address",
          "name": "",
          "type": "address"
        }
      ],
      "stateMutability": "view",
      "type": "function"
    },
    {
      "inputs": [
        {
          "internalType": "address",
          "name": "owner",
          "type": "address"
        },
        {
          "internalType": "address",
          "name": "operator",
          "type": "address"
        }
      ],
      "name": "isApprovedForAll",
      "outputs": [
        {
          "internalType": "bool",
          "name": "",
          "type": "bool"
        }
      ],
      "stateMutability": "view",
      "type": "function"
    },
    {
      "inputs": [],
      "name": "mint",
      "outputs": [],
      "stateMutability": "payable",
      "type": "function"
    },
    {
      "inputs": [],
      "name": "name",
      "outputs": [
        {
          "internalType": "string",
          "name": "",
          "type": "string"
        }
      ],
      "stateMutability": "view",
      "type": "function"
    },
    {
      "inputs": [],
      "name": "owner",
      "outputs": [
        {
          "internalType": "address",
          "name": "",
          "type": "address"
        }
      ],
      "stateMutability": "view",
      "type": "function"
    },
    {
      "inputs": [
        {
          "internalType": "uint256",
          "name": "tokenId",
          "type": "uint256"
        }
      ],
      "name": "ownerOf",
      "outputs": [
        {
          "internalType": "address",
          "name": "",
          "type": "address"
        }
      ],
      "stateMutability": "view",
      "type": "function"
    },
    {
      "inputs": [],
      "name": "price",
      "outputs": [
        {
          "internalType": "uint256",
          "name": "",
          "type": "uint256"
        }
      ],
      "stateMutability": "view",
      "type": "function"
    },
    {
      "inputs": [
        {
          "internalType": "uint256",
          "name": "_mod",
          "type": "uint256"
        },
        {
          "internalType": "uint256",
          "name": "_seed",
          "type": "uint256"
        },
        {
          "internalType": "uint256",
          "name": "_salt",
          "type": "uint256"
        }
      ],
      "name": "randomNum",
      "outputs": [
        {
          "internalType": "uint256",
          "name": "",
          "type": "uint256"
        }
      ],
      "stateMutability": "view",
      "type": "function"
    },
    {
      "inputs": [],
      "name": "renounceOwnership",
      "outputs": [],
      "stateMutability": "nonpayable",
      "type": "function"
    },
    {
      "inputs": [
        {
          "internalType": "address",
          "name": "from",
          "type": "address"
        },
        {
          "internalType": "address",
          "name": "to",
          "type": "address"
        },
        {
          "internalType": "uint256",
          "name": "tokenId",
          "type": "uint256"
        }
      ],
      "name": "safeTransferFrom",
      "outputs": [],
      "stateMutability": "nonpayable",
      "type": "function"
    },
    {
      "inputs": [
        {
          "internalType": "address",
          "name": "from",
          "type": "address"
        },
        {
          "internalType": "address",
          "name": "to",
          "type": "address"
        },
        {
          "internalType": "uint256",
          "name": "tokenId",
          "type": "uint256"
        },
        {
          "internalType": "bytes",
          "name": "_data",
          "type": "bytes"
        }
      ],
      "name": "safeTransferFrom",
      "outputs": [],
      "stateMutability": "nonpayable",
      "type": "function"
    },
    {
      "inputs": [
        {
          "internalType": "address",
          "name": "operator",
          "type": "address"
        },
        {
          "internalType": "bool",
          "name": "approved",
          "type": "bool"
        }
      ],
      "name": "setApprovalForAll",
      "outputs": [],
      "stateMutability": "nonpayable",
      "type": "function"
    },
    {
      "inputs": [
        {
          "internalType": "bytes4",
          "name": "interfaceId",
          "type": "bytes4"
        }
      ],
      "name": "supportsInterface",
      "outputs": [
        {
          "internalType": "bool",
          "name": "",
          "type": "bool"
        }
      ],
      "stateMutability": "view",
      "type": "function"
    },
    {
      "inputs": [],
      "name": "symbol",
      "outputs": [
        {
          "internalType": "string",
          "name": "",
          "type": "string"
        }
      ],
      "stateMutability": "view",
      "type": "function"
    },
    {
      "inputs": [
        {
          "internalType": "uint256",
          "name": "index",
          "type": "uint256"
        }
      ],
      "name": "tokenByIndex",
      "outputs": [
        {
          "internalType": "uint256",
          "name": "",
          "type": "uint256"
        }
      ],
      "stateMutability": "view",
      "type": "function"
    },
    {
      "inputs": [
        {
          "internalType": "uint256",
          "name": "",
          "type": "uint256"
        }
      ],
      "name": "tokenMetadata",
      "outputs": [
        {
          "internalType": "string",
          "name": "",
          "type": "string"
        }
      ],
      "stateMutability": "view",
      "type": "function"
    },
    {
      "inputs": [
        {
          "internalType": "address",
          "name": "owner",
          "type": "address"
        },
        {
          "internalType": "uint256",
          "name": "index",
          "type": "uint256"
        }
      ],
      "name": "tokenOfOwnerByIndex",
      "outputs": [
        {
          "internalType": "uint256",
          "name": "",
          "type": "uint256"
        }
      ],
      "stateMutability": "view",
      "type": "function"
    },
    {
      "inputs": [
        {
          "internalType": "uint256",
          "name": "_tokenId",
          "type": "uint256"
        }
      ],
      "name": "tokenURI",
      "outputs": [
        {
          "internalType": "string",
          "name": "",
          "type": "string"
        }
      ],
      "stateMutability": "view",
      "type": "function"
    },
    {
      "inputs": [],
      "name": "totalSupply",
      "outputs": [
        {
          "internalType": "uint256",
          "name": "",
          "type": "uint256"
        }
      ],
      "stateMutability": "view",
      "type": "function"
    },
    {
      "inputs": [
        {
          "internalType": "address",
          "name": "from",
          "type": "address"
        },
        {
          "internalType": "address",
          "name": "to",
          "type": "address"
        },
        {
          "internalType": "uint256",
          "name": "tokenId",
          "type": "uint256"
        }
      ],
      "name": "transferFrom",
      "outputs": [],
      "stateMutability": "nonpayable",
      "type": "function"
    },
    {
      "inputs": [
        {
          "internalType": "address",
          "name": "newOwner",
          "type": "address"
        }
      ],
      "name": "transferOwnership",
      "outputs": [],
      "stateMutability": "nonpayable",
      "type": "function"
    },
    {
      "inputs": [],
      "name": "withdraw",
      "outputs": [],
      "stateMutability": "payable",
      "type": "function"
    }
  ],
  "bytecode": "0x6001610800818152600960fb1b610820526080908152600261084081815261486560f01b6108605260a052610880838152604f60f81b6108a05260c0526108c0838152604360f81b6108e05260e052610900818152614e6560f01b610920526101005261094081815261466560f01b6109605261012052610980838152602760f91b6109a052610140526109c081815261536960f01b6109e05261016052610a00818152614d6760f01b610a2081905261018091909152610a40828152610a60919091526101a052610a80838152605360f81b610aa0526101c052610ac08181526120b960f11b610ae0526101e052610b0081815261436160f01b610b205261020052610b40818152614e6960f01b610b605261022052610b8081815261105b60f21b610ba05261024052610bc0818152614e6160f01b610be05261026052610c008181526121b960f11b610c205261028052610c408181526126b760f11b610c60526102a052610c80838152600560fc1b610ca0526102c052610cc081815261436f60f01b610ce0526102e052610d0081815261546960f01b610d205261030052610d40838152604b60f81b610d605261032052610d80838152602b60f91b610da05261034052610dc08181526110db60f21b610de05261036052610e00838152602360f91b610e205261038052610e40818152612d3760f11b610e60526103a052610e8081815261476560f01b610ea0526103c052610ec081815261437560f01b610ee0526103e052610f00818152612d3960f11b610f205261040052610f408181526129b960f11b610f605261042052610f808181526125b960f11b610fa05261044052610fc081815261536560f01b610fe0526104605261100081815261536360f01b611020526104805261104081815261283160f11b611060526104a05261108081815261436560f01b6110a0526104c0526110c081815261426160f01b6110e0526104e05261110081815261586560f01b611120526105005261114081815261293160f11b611160526105205261118081815261476160f01b6111a052610540526111c081815261417360f01b6111e0526105605261120081815261213960f11b6112205261058052611240818152614c6960f01b611260526105a05261128081815261141d60f21b6112a0526105c0526112c08181526129b760f11b6112e0526105e0526113008181526124b960f11b61132052610600526113408181526110d960f21b611360526106205261138081815261141960f21b6113a052610640526113c081815261486760f01b6113e05261066052611400838152604960f81b6114205261068052611440838152602160f91b611460526106a05261148081815261426560f01b6114a0526106c0526114c081815261437360f01b6114e0526106e05261150081815261426960f01b611520526107005261154081815261417560f01b611560526107205261158081815261416760f01b6115a052610740526115c0818152610a4d60f31b6115e0526107605261160081815261151b60f21b6116205261078052611640838152605760f81b611660526107a0526116809081526124b760f11b6116a0526107c0526117006040526116c0918252605560f81b6116e0526107e091909152620004bf90600b90603c6200197f565b506611c37937e08000600e55348015620004d857600080fd5b50604080518082018252601081526f426f6872696e6720456c656d656e747360801b602080830191825283518085019094526003845262424f4560e81b9084015281519192916200052c91600091620019e3565b50805162000542906001906020840190620019e3565b5050506200055f620005596200192960201b60201c565b6200192d565b60408051602081018252600181529051600d906200058490600960fb1b815260010190565b908152604051908190036020019020620005a091600162001a6e565b5060408051602081018252600281529051600960fb1b8152600d90600101908152604051908190036020019020620005da91600162001a6e565b5060408051808201825260028152600660208201529051604f60f81b8152600d906001019081526040519081900360200190206200061a91600262001a6e565b5060408051808201825260028152600460208201529051604360f81b8152600d906001019081526040519081900360200190206200065a91600262001a6e565b5060408051808201825260028152600860208201529051600d906200068790614e6560f01b815260020190565b908152604051908190036020019020620006a391600262001a6e565b5060408051608081018252600280825260086020830152600e8284015260608201529051600d90620006dd9061466560f01b815260020190565b908152604051908190036020019020620006f991600462001a6e565b5060408051808201825260028152600560208201529051602760f91b8152600d906001019081526040519081900360200190206200073991600262001a6e565b506040805160608101825260028152600860208201526004818301529051600d906200076d9061536960f01b815260020190565b9081526040519081900360200190206200078991600362001a6e565b5060408051606081018252600280825260086020830152818301529051600d90620007bc90614d6760f01b815260020190565b908152604051908190036020019020620007d891600362001a6e565b506040805160608101825260028152600860208201526006818301529051605360f81b8152600d906001019081526040519081900360200190206200081f91600362001a6e565b506040805160608101825260028152600860208201819052818301529051600d9062000853906120b960f11b815260020190565b9081526040519081900360200190206200086f91600362001a6e565b506040805160808101825260028082526008602083018190528284015260608201529051600d90620008a99061436160f01b815260020190565b908152604051908190036020019020620008c591600462001a6e565b506040805160808101825260028082526008602083015260108284015260608201529051600d90620008ff90614e6960f01b815260020190565b9081526040519081900360200190206200091b91600462001a6e565b506040805160608101825260028152600860208201526003818301529051600d906200094f9061105b60f21b815260020190565b9081526040519081900360200190206200096b91600362001a6e565b506040805160608101825260028152600860208201526001818301529051600d906200099f90614e6160f01b815260020190565b908152604051908190036020019020620009bb91600362001a6e565b5060408051608081018252600280825260086020830152600d8284018190526001606084015292516121b960f11b81529192910190815260405190819003602001902062000a0b91600462001a6e565b5060408051608081018252600280825260086020830152600d8284018190526060830182905292516126b760f11b81529192910190815260405190819003602001902062000a5b91600462001a6e565b506040805160608101825260028152600860208201526005818301529051600560fc1b8152600d9060010190815260405190819003602001902062000aa291600362001a6e565b5060408051608081018252600280825260086020830152600f8284015260608201529051600d9062000adc9061436f60f01b815260020190565b90815260405190819003602001902062000af891600462001a6e565b5060408051608081018252600280825260086020830152600a8284015260608201529051600d9062000b329061546960f01b815260020190565b90815260405190819003602001902062000b4e91600462001a6e565b50604080516080810182526002815260086020820181905281830152600160608201529051600d9062000b8890604b60f81b815260010190565b90815260405190819003602001902062000ba491600462001a6e565b5060408051608081018252600280825260086020830152600b8284015260608201529051602b60f91b8152600d9060010190815260405190819003602001902062000bf191600462001a6e565b506040805160608101825260028152600860208201526007818301529051600d9062000c25906110db60f21b815260020190565b90815260405190819003602001902062000c4191600362001a6e565b5060408051808201825260028152600760208201529051602360f91b8152600d9060010190815260405190819003602001902062000c8191600262001a6e565b506040805160808101825260028082526008602083015260128284015260608201529051600d9062000cbb90612d3760f11b815260020190565b90815260405190819003602001902062000cd791600462001a6e565b50604080516080810182526002815260086020820152601281830152600460608201529051600d9062000d129061476560f01b815260020190565b90815260405190819003602001902062000d2e91600462001a6e565b50604080516080810182526002815260086020820152601281830152600160608201529051600d9062000d699061437560f01b815260020190565b90815260405190819003602001902062000d8591600462001a6e565b506040805160a081018252600280825260086020830152601282840152600a606083015260808201529051600d9062000dc690612d3960f11b815260020190565b90815260405190819003602001902062000de291600562001a6e565b506040805160a0810182526002808252600860208301819052601283850152606083015260808201529051600d9062000e23906129b960f11b815260020190565b90815260405190819003602001902062000e3f91600562001a6e565b50604080516080810182526002815260086020820181905260128284015260608201529051600d9062000e7a906125b960f11b815260020190565b90815260405190819003602001902062000e9691600462001a6e565b50604080516080810182526002815260086020820152601281830152600660608201529051600d9062000ed19061536560f01b815260020190565b90815260405190819003602001902062000eed91600462001a6e565b506040805160808101825260028082526008602083015260098284015260608201529051600d9062000f279061536360f01b815260020190565b90815260405190819003602001902062000f4391600462001a6e565b506040805160c081018252600281526008602080830191909152601282840181905260608301919091526080820152600460a08201529051600d9062000f919061283160f11b815260020190565b90815260405190819003602001902062000fad91600662001a6e565b506040805160c081018252600280825260086020830152601282840152601360608301526009608083015260a08201529051600d9062000ff59061436560f01b815260020190565b9081526040519081900360200190206200101191600662001a6e565b506040805160c081018252600280825260086020830181905260128385018190526060840152608083015260a08201529051600d90620010599061426160f01b815260020190565b9081526040519081900360200190206200107591600662001a6e565b506040805160a081018252600281526008602082018190526012828401819052606083015260808201529051600d90620010b79061586560f01b815260020190565b908152604051908190036020019020620010d391600562001a6e565b506040805160a081018252600281526008602082018190526012828401526060820152600160808201529051600d90620011159061293160f11b815260020190565b9081526040519081900360200190206200113191600562001a6e565b50604080516080810182526002815260086020820152601281830152600360608201529051600d906200116c9061476160f01b815260020190565b9081526040519081900360200190206200118891600462001a6e565b50604080516080810182526002815260086020820152601281830152600560608201529051600d90620011c39061417360f01b815260020190565b908152604051908190036020019020620011df91600462001a6e565b50604080516080810182526002815260086020820152601281830152600760608201529051600d906200121a9061213960f11b815260020190565b9081526040519081900360200190206200123691600462001a6e565b5060408051808201825260028152600160208201529051600d906200126390614c6960f01b815260020190565b9081526040519081900360200190206200127f91600262001a6e565b506040805160c081018252600281526008602080830191909152601282840152606082015260116080820152600160a08201529051600d90620012ca9061141d60f21b815260020190565b908152604051908190036020019020620012e691600662001a6e565b506040805160a081018252600281526008602082015260128183018190526060820152600460808201529051600d9062001328906129b760f11b815260020190565b9081526040519081900360200190206200134491600562001a6e565b506040805160c081018252600280825260086020808401919091526012838501526060830152600f608083015260a08201529051600d906200138e906124b960f11b815260020190565b908152604051908190036020019020620013aa91600662001a6e565b506040805160a0810182526002808252600860208301526012828401819052606083015260808201529051600d90620013eb906110d960f21b815260020190565b9081526040519081900360200190206200140791600562001a6e565b50604080516080810182526002815260086020820152601281830181905260608201529051600d90620014429061141960f21b815260020190565b9081526040519081900360200190206200145e91600462001a6e565b506040805160c0810182526002808252600860208084019190915260128385018190526060840191909152608083015260a08201529051600d90620014ab9061486760f01b815260020190565b908152604051908190036020019020620014c791600662001a6e565b506040805160a081018252600281526008602082015260128183018190526060820152600760808201529051604960f81b8152600d906001019081526040519081900360200190206200151c91600562001a6e565b5060408051808201825260028152600360208201529051602160f91b8152600d906001019081526040519081900360200190206200155c91600262001a6e565b50604080518082018252600280825260208201529051600d90620015889061426560f01b815260020190565b908152604051908190036020019020620015a491600262001a6e565b506040805160c08101825260028152600860208201819052601282840181905260608301526080820152600160a08201529051600d90620015ed9061437360f01b815260020190565b9081526040519081900360200190206200160991600662001a6e565b506040805160c081018252600281526008602080830191909152601282840181905260608301919091526080820152600560a08201529051600d90620016579061426960f01b815260020190565b9081526040519081900360200190206200167391600662001a6e565b506040805160c081018252600281526008602080830191909152601282840181905260608301919091526080820152600160a08201529051600d90620016c19061417560f01b815260020190565b908152604051908190036020019020620016dd91600662001a6e565b506040805160a081018252600281526008602082015260128183018190526060820152600160808201529051600d906200171f9061416760f01b815260020190565b9081526040519081900360200190206200173b91600562001a6e565b506040805160a081018252600281526008602082015260128183015260106060820152600160808201529051600d906200177d90610a4d60f31b815260020190565b9081526040519081900360200190206200179991600562001a6e565b506040805160c081018252600281526008602080830191909152601282840181905260608301919091526080820152600360a08201529051600d90620017e79061151b60f21b815260020190565b9081526040519081900360200190206200180391600662001a6e565b506040805160c081018252600280825260086020808401919091526012838501526060830152600c608083015260a08201529051605760f81b8152600d906001019081526040519081900360200190206200186091600662001a6e565b506040805160a081018252600281526008602082015260128183018190526060820152600360808201529051600d90620018a2906124b760f11b815260020190565b908152604051908190036020019020620018be91600562001a6e565b506040805160e08101825260028082526008602080840191909152601283850152606083015260156080830152600960a083015260c08201529051605560f81b8152600d906001019081526040519081900360200190206200192291600762001a6e565b5062001b68565b3390565b600a80546001600160a01b038381166001600160a01b0319831681179093556040519116919082907f8be0079c531659141344cd1fd0a4f28419497f9722a3daafe3b4186f6b6457e090600090a35050565b828054828255906000526020600020908101928215620019d1579160200282015b82811115620019d15782518051620019c0918491602090910190620019e3565b5091602001919060010190620019a0565b50620019df92915062001ab1565b5090565b828054620019f19062001b2b565b90600052602060002090601f01602090048101928262001a15576000855562001a60565b82601f1062001a3057805160ff191683800117855562001a60565b8280016001018555821562001a60579182015b8281111562001a6057825182559160200191906001019062001a43565b50620019df92915062001ad2565b82805482825590600052602060002090810192821562001a60579160200282015b8281111562001a60578251829060ff1690559160200191906001019062001a8f565b80821115620019df57600062001ac8828262001ae9565b5060010162001ab1565b5b80821115620019df576000815560010162001ad3565b50805462001af79062001b2b565b6000825580601f1062001b08575050565b601f01602090049060005260206000209081019062001b28919062001ad2565b50565b600181811c9082168062001b4057607f821691505b6020821081141562001b6257634e487b7160e01b600052602260045260246000fd5b50919050565b6132d68062001b786000396000f3fe6080604052600436106101c25760003560e01c80636914db60116100f7578063b88d4fde11610095578063e0a48c4f11610064578063e0a48c4f146104bc578063e985e9c5146104dc578063edf8770414610525578063f2fde38b1461054557600080fd5b8063b88d4fde14610449578063bc5bfd1314610469578063c87b56dd1461047c578063d5b619891461049c57600080fd5b80638da5cb5b116100d15780638da5cb5b146103e057806395d89b41146103fe578063a035b1fe14610413578063a22cb4651461042957600080fd5b80636914db601461038b57806370a08231146103ab578063715018a6146103cb57600080fd5b806323b872dd116101645780633ccfd60b1161013e5780633ccfd60b1461032357806342842e0e1461032b5780634f6ccce71461034b5780636352211e1461036b57600080fd5b806323b872dd146102c357806328294640146102e35780632f745c591461030357600080fd5b8063081812fc116101a0578063081812fc14610242578063095ea7b31461027a5780631249c58b1461029c57806318160ddd146102a457600080fd5b8063011f7e03146101c757806301ffc9a7146101fd57806306fdde031461022d575b600080fd5b3480156101d357600080fd5b506101e76101e2366004612646565b610565565b6040516101f49190612ea5565b60405180910390f35b34801561020957600080fd5b5061021d61021836600461253c565b6108a0565b60405190151581526020016101f4565b34801561023957600080fd5b506101e76108cb565b34801561024e57600080fd5b5061026261025d366004612603565b61095d565b6040516001600160a01b0390911681526020016101f4565b34801561028657600080fd5b5061029a610295366004612513565b6109f7565b005b61029a610b0d565b3480156102b057600080fd5b506008545b6040519081526020016101f4565b3480156102cf57600080fd5b5061029a6102de366004612425565b610bd0565b3480156102ef57600080fd5b506102b56102fe36600461261b565b610c01565b34801561030f57600080fd5b506102b561031e366004612513565b610c69565b61029a610cff565b34801561033757600080fd5b5061029a610346366004612425565b610d9d565b34801561035757600080fd5b506102b5610366366004612603565b610db8565b34801561037757600080fd5b50610262610386366004612603565b610e59565b34801561039757600080fd5b506101e76103a6366004612603565b610ed0565b3480156103b757600080fd5b506102b56103c63660046123d9565b610f6a565b3480156103d757600080fd5b5061029a610ff1565b3480156103ec57600080fd5b50600a546001600160a01b0316610262565b34801561040a57600080fd5b506101e7611027565b34801561041f57600080fd5b506102b5600e5481565b34801561043557600080fd5b5061029a6104443660046124d9565b611036565b34801561045557600080fd5b5061029a610464366004612460565b6110fb565b6101e76104773660046125b7565b611133565b34801561048857600080fd5b506101e7610497366004612603565b611348565b3480156104a857600080fd5b506101e76104b7366004612603565b6113ea565b3480156104c857600080fd5b506102b56104d7366004612574565b611415565b3480156104e857600080fd5b5061021d6104f73660046123f3565b6001600160a01b03918216600090815260056020908152604080832093909416825291909152205460ff1690565b34801561053157600080fd5b506101e7610540366004612603565b611455565b34801561055157600080fd5b5061029a6105603660046123d9565b611664565b60408051602081019091526000808252606091906001906101689061058a8983612fa8565b905060065b89841161089057836001141561071d57846040516020016105b09190612c72565b6040516020818303038152906040529450846105cb846116fc565b6105d48a6116fc565b6105dd8a6116fc565b6040516020016105f094939291906126ee565b60408051601f198184030181529190529450846106156106108486612fdb565b6116fc565b61061e8a6116fc565b6106278a6116fc565b60405160200161063a9493929190612ac8565b604051602081830303815290604052945084610655826116fc565b604051602001610666929190612a2e565b604051602081830303815290604052945084610681896116fc565b61068a896116fc565b6106a36106988d6005612fbc565b610610906014612f90565b6040516020016106b694939291906127cd565b60408051601f198184030181529190529450846106ec6106d78b6005612fbc565b6106e260148c612fdb565b6106109190612fdb565b6106f5896116fc565b6040516020016107079392919061275d565b6040516020818303038152906040529450610872565b8460405160200161072e9190612c72565b604051602081830303815290604052945084610749846116fc565b6107528a6116fc565b61075b8a6116fc565b60405160200161076e94939291906126ee565b60408051601f1981840301815291905294508461078e6106108486612fdb565b6107978a6116fc565b6107a08a6116fc565b6040516020016107b39493929190612ac8565b6040516020818303038152906040529450846107ce826116fc565b6040516020016107df929190612986565b6040516020818303038152906040529450846107fa896116fc565b610803896116fc565b6108116106988d6005612fbc565b60405160200161082494939291906127cd565b60408051601f198184030181529190529450846108456106d78b6005612fbc565b61084e896116fc565b6040516020016108609392919061275d565b60405160208183030381529060405294505b61087c8284612fdb565b9250610889846001612f90565b935061058f565b509293505050505b949350505050565b60006001600160e01b0319821663780e9d6360e01b14806108c557506108c582611816565b92915050565b6060600080546108da9061301e565b80601f01602080910402602001604051908101604052809291908181526020018280546109069061301e565b80156109535780601f1061092857610100808354040283529160200191610953565b820191906000526020600020905b81548152906001019060200180831161093657829003601f168201915b5050505050905090565b6000818152600260205260408120546001600160a01b03166109db5760405162461bcd60e51b815260206004820152602c60248201527f4552433732313a20617070726f76656420717565727920666f72206e6f6e657860448201526b34b9ba32b73a103a37b5b2b760a11b60648201526084015b60405180910390fd5b506000908152600460205260409020546001600160a01b031690565b6000610a0282610e59565b9050806001600160a01b0316836001600160a01b03161415610a705760405162461bcd60e51b815260206004820152602160248201527f4552433732313a20617070726f76616c20746f2063757272656e74206f776e656044820152603960f91b60648201526084016109d2565b336001600160a01b0382161480610a8c5750610a8c81336104f7565b610afe5760405162461bcd60e51b815260206004820152603860248201527f4552433732313a20617070726f76652063616c6c6572206973206e6f74206f7760448201527f6e6572206e6f7220617070726f76656420666f7220616c6c000000000000000060648201526084016109d2565b610b088383611866565b505050565b6000610b1860085490565b905062989680610b29826001612f90565b1115610b3457600080fd5b600a546001600160a01b03163314610b5557600e54341015610b5557600080fd5b610b5e81611455565b50610b6933826118d4565b60408051338152602081018390527f94e4091e87aa5dff3a470894a70be621d0c8cab526840c75e4507c0ef9e7994a910160405180910390a1610bad816001612f90565b90506064600e546065610bc09190612fbc565b610bca9190612fa8565b600e5550565b610bda33826118f2565b610bf65760405162461bcd60e51b81526004016109d290612f3f565b610b088383836119e5565b604080514260208201526bffffffffffffffffffffffff193360601b16918101919091526054810183905260748101829052600090819085906094016040516020818303038152906040528051906020012060001c610c609190613074565b95945050505050565b6000610c7483610f6a565b8210610cd65760405162461bcd60e51b815260206004820152602b60248201527f455243373231456e756d657261626c653a206f776e657220696e646578206f7560448201526a74206f6620626f756e647360a81b60648201526084016109d2565b506001600160a01b03919091166000908152600660209081526040808320938352929052205490565b600a546001600160a01b03163314610d295760405162461bcd60e51b81526004016109d290612f0a565b6000610d3d600a546001600160a01b031690565b6001600160a01b03164760405160006040518083038185875af1925050503d8060008114610d87576040519150601f19603f3d011682016040523d82523d6000602084013e610d8c565b606091505b5050905080610d9a57600080fd5b50565b610b08838383604051806020016040528060008152506110fb565b6000610dc360085490565b8210610e265760405162461bcd60e51b815260206004820152602c60248201527f455243373231456e756d657261626c653a20676c6f62616c20696e646578206f60448201526b7574206f6620626f756e647360a01b60648201526084016109d2565b60088281548110610e4757634e487b7160e01b600052603260045260246000fd5b90600052602060002001549050919050565b6000818152600260205260408120546001600160a01b0316806108c55760405162461bcd60e51b815260206004820152602960248201527f4552433732313a206f776e657220717565727920666f72206e6f6e657869737460448201526832b73a103a37b5b2b760b91b60648201526084016109d2565b600c6020526000908152604090208054610ee99061301e565b80601f0160208091040260200160405190810160405280929190818152602001828054610f159061301e565b8015610f625780601f10610f3757610100808354040283529160200191610f62565b820191906000526020600020905b815481529060010190602001808311610f4557829003601f168201915b505050505081565b60006001600160a01b038216610fd55760405162461bcd60e51b815260206004820152602a60248201527f4552433732313a2062616c616e636520717565727920666f7220746865207a65604482015269726f206164647265737360b01b60648201526084016109d2565b506001600160a01b031660009081526003602052604090205490565b600a546001600160a01b0316331461101b5760405162461bcd60e51b81526004016109d290612f0a565b6110256000611b90565b565b6060600180546108da9061301e565b6001600160a01b03821633141561108f5760405162461bcd60e51b815260206004820152601960248201527f4552433732313a20617070726f766520746f2063616c6c65720000000000000060448201526064016109d2565b3360008181526005602090815260408083206001600160a01b03871680855290835292819020805460ff191686151590811790915590519081529192917f17307eab39ab6107e8899845ad3d59bd9653f200f220920489ca2b5937696c31910160405180910390a35050565b61110533836118f2565b6111215760405162461bcd60e51b81526004016109d290612f3f565b61112d84848484611be2565b50505050565b60606000604051806101a00160405280610180815260200161312161018091399050600080600d8760405161116891906126a3565b90815260408051918290036020908101832080548083028501830190935282845291908301828280156111ba57602002820191906000526020600020905b8154815260200190600101908083116111a6575b505050505090505b805182101561128757826111da610610846001612f90565b6040516020016111eb929190612bce565b60405160208183030381529060405292508261123082848151811061122057634e487b7160e01b600052603260045260246000fd5b6020026020010151848989610565565b6040516020016112419291906126bf565b6040516020818303038152906040529250826040516020016112639190612c20565b60408051601f198184030181529190529250611280826001612f90565b91506111c2565b82611291876116fc565b61129a876116fc565b6040516020016112ac93929190612906565b6040516020818303038152906040529250826112c7876116fc565b6112d5610610886002612f90565b6040516020016112e793929190612b58565b6040516020818303038152906040529250828760405160200161130b929190612873565b60405160208183030381529060405292508260405160200161132d9190612c48565b60405160208183030381529060405293505050509392505050565b6000818152600c602052604090208054606091906113659061301e565b80601f01602080910402602001604051908101604052809291908181526020018280546113919061301e565b80156113de5780601f106113b3576101008083540402835291602001916113de565b820191906000526020600020905b8154815290600101906020018083116113c157829003601f168201915b50505050509050919050565b600b81815481106113fa57600080fd5b906000526020600020016000915090508054610ee99061301e565b8151602081840181018051600d82529282019185019190912091905280548290811061144057600080fd5b90600052602060002001600091509150505481565b60606000600b61146b600b805490504486610c01565b8154811061148957634e487b7160e01b600052603260045260246000fd5b90600052602060002001805461149e9061301e565b80601f01602080910402602001604051908101604052809291908181526020018280546114ca9061301e565b80156115175780601f106114ec57610100808354040283529160200191611517565b820191906000526020600020905b8154815290600101906020018083116114fa57829003601f168201915b505050505090506115848161152b856116fc565b60405160200161153b9190612de9565b60405160208183030381529060405261155e6115598560fa80611133565b611c15565b60405160200161157093929190612ce7565b604051602081830303815290604052611c15565b6040516020016115949190612e23565b60408051601f198184030181529181526000858152600c602090815291902082516115c493919290910190612288565b506000838152600c6020526040902080546115de9061301e565b80601f016020809104026020016040519081016040528092919081815260200182805461160a9061301e565b80156116575780601f1061162c57610100808354040283529160200191611657565b820191906000526020600020905b81548152906001019060200180831161163a57829003601f168201915b5050505050915050919050565b600a546001600160a01b0316331461168e5760405162461bcd60e51b81526004016109d290612f0a565b6001600160a01b0381166116f35760405162461bcd60e51b815260206004820152602660248201527f4f776e61626c653a206e6577206f776e657220697320746865207a65726f206160448201526564647265737360d01b60648201526084016109d2565b610d9a81611b90565b6060816117205750506040805180820190915260018152600360fc1b602082015290565b8160005b811561174a578061173481613059565b91506117439050600a83612fa8565b9150611724565b60008167ffffffffffffffff81111561177357634e487b7160e01b600052604160045260246000fd5b6040519080825280601f01601f19166020018201604052801561179d576020820181803683370190505b5090505b8415610898576117b2600183612fdb565b91506117bf600a86613074565b6117ca906030612f90565b60f81b8183815181106117ed57634e487b7160e01b600052603260045260246000fd5b60200101906001600160f81b031916908160001a90535061180f600a86612fa8565b94506117a1565b60006001600160e01b031982166380ac58cd60e01b148061184757506001600160e01b03198216635b5e139f60e01b145b806108c557506301ffc9a760e01b6001600160e01b03198316146108c5565b600081815260046020526040902080546001600160a01b0319166001600160a01b038416908117909155819061189b82610e59565b6001600160a01b03167f8c5be1e5ebec7d5bd14f71427d1e84f3dd0314c0f7b2291e5b200ac8c7c3b92560405160405180910390a45050565b6118ee828260405180602001604052806000815250611d8b565b5050565b6000818152600260205260408120546001600160a01b031661196b5760405162461bcd60e51b815260206004820152602c60248201527f4552433732313a206f70657261746f7220717565727920666f72206e6f6e657860448201526b34b9ba32b73a103a37b5b2b760a11b60648201526084016109d2565b600061197683610e59565b9050806001600160a01b0316846001600160a01b031614806119b15750836001600160a01b03166119a68461095d565b6001600160a01b0316145b8061089857506001600160a01b0380821660009081526005602090815260408083209388168352929052205460ff16610898565b826001600160a01b03166119f882610e59565b6001600160a01b031614611a605760405162461bcd60e51b815260206004820152602960248201527f4552433732313a207472616e73666572206f6620746f6b656e2074686174206960448201526839903737ba1037bbb760b91b60648201526084016109d2565b6001600160a01b038216611ac25760405162461bcd60e51b8152602060048201526024808201527f4552433732313a207472616e7366657220746f20746865207a65726f206164646044820152637265737360e01b60648201526084016109d2565b611acd838383611dbe565b611ad8600082611866565b6001600160a01b0383166000908152600360205260408120805460019290611b01908490612fdb565b90915550506001600160a01b0382166000908152600360205260408120805460019290611b2f908490612f90565b909155505060008181526002602052604080822080546001600160a01b0319166001600160a01b0386811691821790925591518493918716917fddf252ad1be2c89b69c2b068fc378daa952ba7f163c4a11628f55a4df523b3ef91a4505050565b600a80546001600160a01b038381166001600160a01b0319831681179093556040519116919082907f8be0079c531659141344cd1fd0a4f28419497f9722a3daafe3b4186f6b6457e090600090a35050565b611bed8484846119e5565b611bf984848484611e76565b61112d5760405162461bcd60e51b81526004016109d290612eb8565b6060815160001415611c3557505060408051602081019091526000815290565b60006040518060600160405280604081526020016130e16040913990506000600384516002611c649190612f90565b611c6e9190612fa8565b611c79906004612fbc565b90506000611c88826020612f90565b67ffffffffffffffff811115611cae57634e487b7160e01b600052604160045260246000fd5b6040519080825280601f01601f191660200182016040528015611cd8576020820181803683370190505b509050818152600183018586518101602084015b81831015611d465760039283018051603f601282901c811687015160f890811b8552600c83901c8216880151811b6001860152600683901c8216880151811b60028601529116860151901b93820193909352600401611cec565b600389510660018114611d605760028114611d7157611d7d565b613d3d60f01b600119830152611d7d565b603d60f81b6000198301525b509398975050505050505050565b611d958383611f80565b611da26000848484611e76565b610b085760405162461bcd60e51b81526004016109d290612eb8565b6001600160a01b038316611e1957611e1481600880546000838152600960205260408120829055600182018355919091527ff3f7a9fe364faab93b216da50a3214154f22a0a2b415b23a84c8169e8b636ee30155565b611e3c565b816001600160a01b0316836001600160a01b031614611e3c57611e3c83826120ce565b6001600160a01b038216611e5357610b088161216b565b826001600160a01b0316826001600160a01b031614610b0857610b088282612244565b60006001600160a01b0384163b15611f7857604051630a85bd0160e11b81526001600160a01b0385169063150b7a0290611eba903390899088908890600401612e68565b602060405180830381600087803b158015611ed457600080fd5b505af1925050508015611f04575060408051601f3d908101601f19168201909252611f0191810190612558565b60015b611f5e573d808015611f32576040519150601f19603f3d011682016040523d82523d6000602084013e611f37565b606091505b508051611f565760405162461bcd60e51b81526004016109d290612eb8565b805181602001fd5b6001600160e01b031916630a85bd0160e11b149050610898565b506001610898565b6001600160a01b038216611fd65760405162461bcd60e51b815260206004820181905260248201527f4552433732313a206d696e7420746f20746865207a65726f206164647265737360448201526064016109d2565b6000818152600260205260409020546001600160a01b03161561203b5760405162461bcd60e51b815260206004820152601c60248201527f4552433732313a20746f6b656e20616c7265616479206d696e7465640000000060448201526064016109d2565b61204760008383611dbe565b6001600160a01b0382166000908152600360205260408120805460019290612070908490612f90565b909155505060008181526002602052604080822080546001600160a01b0319166001600160a01b03861690811790915590518392907fddf252ad1be2c89b69c2b068fc378daa952ba7f163c4a11628f55a4df523b3ef908290a45050565b600060016120db84610f6a565b6120e59190612fdb565b600083815260076020526040902054909150808214612138576001600160a01b03841660009081526006602090815260408083208584528252808320548484528184208190558352600790915290208190555b5060009182526007602090815260408084208490556001600160a01b039094168352600681528383209183525290812055565b60085460009061217d90600190612fdb565b600083815260096020526040812054600880549394509092849081106121b357634e487b7160e01b600052603260045260246000fd5b9060005260206000200154905080600883815481106121e257634e487b7160e01b600052603260045260246000fd5b600091825260208083209091019290925582815260099091526040808220849055858252812055600880548061222857634e487b7160e01b600052603160045260246000fd5b6001900381819060005260206000200160009055905550505050565b600061224f83610f6a565b6001600160a01b039093166000908152600660209081526040808320868452825280832085905593825260079052919091209190915550565b8280546122949061301e565b90600052602060002090601f0160209004810192826122b657600085556122fc565b82601f106122cf57805160ff19168380011785556122fc565b828001600101855582156122fc579182015b828111156122fc5782518255916020019190600101906122e1565b5061230892915061230c565b5090565b5b80821115612308576000815560010161230d565b600067ffffffffffffffff8084111561233c5761233c6130b4565b604051601f8501601f19908116603f01168101908282118183101715612364576123646130b4565b8160405280935085815286868601111561237d57600080fd5b858560208301376000602087830101525050509392505050565b80356001600160a01b03811681146123ae57600080fd5b919050565b600082601f8301126123c3578081fd5b6123d283833560208501612321565b9392505050565b6000602082840312156123ea578081fd5b6123d282612397565b60008060408385031215612405578081fd5b61240e83612397565b915061241c60208401612397565b90509250929050565b600080600060608486031215612439578081fd5b61244284612397565b925061245060208501612397565b9150604084013590509250925092565b60008060008060808587031215612475578081fd5b61247e85612397565b935061248c60208601612397565b925060408501359150606085013567ffffffffffffffff8111156124ae578182fd5b8501601f810187136124be578182fd5b6124cd87823560208401612321565b91505092959194509250565b600080604083850312156124eb578182fd5b6124f483612397565b915060208301358015158114612508578182fd5b809150509250929050565b60008060408385031215612525578182fd5b61252e83612397565b946020939093013593505050565b60006020828403121561254d578081fd5b81356123d2816130ca565b600060208284031215612569578081fd5b81516123d2816130ca565b60008060408385031215612586578182fd5b823567ffffffffffffffff81111561259c578283fd5b6125a8858286016123b3565b95602094909401359450505050565b6000806000606084860312156125cb578283fd5b833567ffffffffffffffff8111156125e1578384fd5b6125ed868287016123b3565b9660208601359650604090950135949350505050565b600060208284031215612614578081fd5b5035919050565b60008060006060848603121561262f578283fd5b505081359360208301359350604090920135919050565b6000806000806080858703121561265b578081fd5b5050823594602084013594506040840135936060013592509050565b6000815180845261268f816020860160208601612ff2565b601f01601f19169290920160200192915050565b600082516126b5818460208701612ff2565b9190910192915050565b600083516126d1818460208801612ff2565b8351908301906126e5818360208801612ff2565b01949350505050565b60008551612700818460208a01612ff2565b855190830190612714818360208a01612ff2565b600160fd1b91018181528551909190612734816001850160208a01612ff2565b6001920191820152835161274f816002840160208801612ff2565b016002019695505050505050565b6000845161276f818460208901612ff2565b845190830190612783818360208901612ff2565b65272063793d2760d01b910190815283516127a5816006840160208801612ff2565b6d1390391e93991390179f1e17b39f60911b6006929091019182015260140195945050505050565b600085516127df818460208a01612ff2565b8551908301906127f3818360208a01612ff2565b65272063793d2760d01b91019081528451612815816006840160208901612ff2565b642720723d2760d81b60069290910191820152835161283b81600b840160208801612ff2565b7f272f3e203c636972636c6520636c6173733d274561727468272063783d270000600b92909101918201526029019695505050505050565b60008351612885818460208801612ff2565b80830190507f2720616c69676e6d656e742d626173656c696e653d276d6964646c652720746581527f78742d616e63686f723d276d6964646c652720636c6173733d2762617365273e602082015283516128e6816040840160208801612ff2565b661e17ba32bc3a1f60c91b60409290910191820152604701949350505050565b60008451612918818460208901612ff2565b7f3c636972636c6520636c6173733d2773756e272063783d2700000000000000009083019081528451612952816018840160208901612ff2565b65272063793d2760d01b60189290910191820152835161297981601e840160208801612ff2565b01601e0195945050505050565b60008351612998818460208801612ff2565b600160fd1b908301908152646475723d2760d81b600182015283516129c4816006840160208801612ff2565b7f732720726570656174436f756e743d27696e646566696e69746527202f3e203c600692909101918201527f636972636c65207374726f6b653d276e6f6e65272066696c6c3d276e6f6e65276026820152642063783d2760d81b6046820152604b01949350505050565b60008351612a40818460208801612ff2565b600160fd1b908301908152646475723d2760d81b60018201528351612a6c816006840160208801612ff2565b7f732720726570656174436f756e743d27696e646566696e69746527202f3e203c600692909101918201527f636972636c6520636c6173733d2745617274682d6f72626974272063783d27006026820152604501949350505050565b60008551612ada818460208a01612ff2565b8083019050603b60f81b8152600160fd1b8060018301528651612b04816002850160208b01612ff2565b600292019182018190528551612b21816003850160208a01612ff2565b60039201918201528351612b3c816004840160208801612ff2565b602760f81b600492909101918201526005019695505050505050565b60008451612b6a818460208901612ff2565b732720723d273135272f3e203c7465787420783d2760601b9083019081528451612b9b816014840160208901612ff2565b642720793d2760d81b601492909101918201528351612bc1816019840160208801612ff2565b0160190195945050505050565b60008351612be0818460208801612ff2565b671e339034b21e93b760c11b9083019081528351612c05816008840160208801612ff2565b61139f60f11b60089290910191820152600a01949350505050565b60008251612c32818460208701612ff2565b631e17b39f60e11b920191825250600401919050565b60008251612c5a818460208701612ff2565b651e17b9bb339f60d11b920191825250600601919050565b60008251612c84818460208701612ff2565b7f3c673e3c616e696d6174655472616e73666f726d206174747269627574654e619201918252507f6d653d277472616e73666f726d2720747970653d27726f74617465272076616c6020820152647565733d2760d81b6040820152604501919050565b683d913730b6b2911d1160b91b81528351600090612d0c816009850160208901612ff2565b71111610113232b9b1b934b83a34b7b7111d1160711b6009918401918201528451612d3e81601b840160208901612ff2565b7f426f6872696e6720456c656d656e747320617265206f6e2d636861696e206765601b92909101918201526b6e657261746564204e46547360a01b603b8201526c1116101134b6b0b3b2911d101160991b60478201527f646174613a696d6167652f7376672b786d6c3b6261736536342c00000000000060548201528351612dcd81606e840160208801612ff2565b61227d60f01b606e929091019182015260700195945050505050565b71426f6872696e6720456c656d656e7473202360701b815260008251612e16816012850160208701612ff2565b9190910160120192915050565b7f646174613a6170706c69636174696f6e2f6a736f6e3b6261736536342c000000815260008251612e5b81601d850160208701612ff2565b91909101601d0192915050565b6001600160a01b0385811682528416602082015260408101839052608060608201819052600090612e9b90830184612677565b9695505050505050565b6020815260006123d26020830184612677565b60208082526032908201527f4552433732313a207472616e7366657220746f206e6f6e20455243373231526560408201527131b2b4bb32b91034b6b83632b6b2b73a32b960711b606082015260800190565b6020808252818101527f4f776e61626c653a2063616c6c6572206973206e6f7420746865206f776e6572604082015260600190565b60208082526031908201527f4552433732313a207472616e736665722063616c6c6572206973206e6f74206f6040820152701ddb995c881b9bdc88185c1c1c9bdd9959607a1b606082015260800190565b60008219821115612fa357612fa3613088565b500190565b600082612fb757612fb761309e565b500490565b6000816000190483118215151615612fd657612fd6613088565b500290565b600082821015612fed57612fed613088565b500390565b60005b8381101561300d578181015183820152602001612ff5565b8381111561112d5750506000910152565b600181811c9082168061303257607f821691505b6020821081141561305357634e487b7160e01b600052602260045260246000fd5b50919050565b600060001982141561306d5761306d613088565b5060010190565b6000826130835761308361309e565b500690565b634e487b7160e01b600052601160045260246000fd5b634e487b7160e01b600052601260045260246000fd5b634e487b7160e01b600052604160045260246000fd5b6001600160e01b031981168114610d9a57600080fdfe4142434445464748494a4b4c4d4e4f505152535455565758595a6162636465666768696a6b6c6d6e6f707172737475767778797a303132333435363738392b2f3c73766720786d6c6e733d27687474703a2f2f7777772e77332e6f72672f323030302f73766727207072657365727665417370656374526174696f3d27784d696e594d696e206d656574272076696577426f783d273020302035303020353030273e3c7374796c653e2e62617365207b2066696c6c3a2077686974653b20666f6e742d66616d696c793a2073657269663b20666f6e742d73697a653a20313670783b207d202e73756e207b2066696c6c3a207267622838332c3137352c323535293b206f7061636974793a20302e343b207d202e45617274682d6f72626974207b2066696c6c3a206e6f6e653b207374726f6b653a207267622838332c3137352c323535293b207374726f6b652d77696474683a20313b206f7061636974793a20302e363b7d202e4561727468207b2066696c6c3a207267622838332c3137352c323535293b207d3c2f7374796c653e3c726563742077696474683d273130302527206865696768743d2731303025272066696c6c3d27626c61636b27202f3ea264697066735822122000fe0e11a77b64387bc2f9facf106efab6229ddec5ef64dfc246b5eb26163c0f64736f6c63430008040033",
  "linkReferences": {},
  "deployedLinkReferences": {}
}